:100000000C9462000C948A000C948A000C948A0070
:100010000C948A000C948A000C948A000C948A0038
:100020000C948A000C948A000C948A000C948A0028
:100030000C948A000C948A000C948A000C948A0018
:100040000C9440060C948A000C940E060C94E8055F
:100050000C948A000C948A000C948A000C948A00F8
:100060000C948A000C948A000000000024002700F1
:100070002A0000000000250028002B0000000000DE
:1000800023002600290004040404040404040202DA
:100090000202020203030303030301020408102007
:1000A0004080010204081020010204081020000012
:1000B0000008000201000003040700000000000027
:1000C00000008A0611241FBECFEFD8E0DEBFCDBFEF
:1000D00011E0A0E0B1E0E6E5F7E102C005900D9285
:1000E000AA33B107D9F722E0AAE3B1E001C01D921B
:1000F000A132B207E1F710E0C2E6D0E004C02197D8
:10010000FE010E949E0BC136D107C9F70E94C506A9
:100110000C94A90B0C940000E0915201F091530152
:100120000190F081E02D682F82E591E00994CF9253
:10013000DF92EF92FF920F931F93CF93DF936C01A7
:100140007A018B01C0E0D0E0CE15DF0589F0D8013F
:100150006D918D01D601ED91FC910190F081E02D22
:10016000C6010995892B11F47E0102C02196ECCFBE
:10017000C701DF91CF911F910F91FF90EF90DF901A
:10018000CF900895089580E090E00895FC01538D8C
:10019000448D252F30E0842F90E0821B930B541761
:1001A00010F0CF96089501970895FC01918D828DEE
:1001B000981761F0828DDF01A80FB11D5D968C91BB
:1001C000928D9F5F9F73928F90E008958FEF9FEFC6
:1001D0000895FC01918D828D981731F0828DE80F82
:1001E000F11D858D90E008958FEF9FEF0895FC013C
:1001F000918D228D892F90E0805C9F4F821B910909
:100200008F739927089582E591E00E94F70021E01D
:10021000892B09F420E0822F0895FC01848DDF01F1
:10022000A80FB11DA35ABF4F2C91848D90E0019669
:100230008F739927848FA689B7892C93A089B18958
:100240008C9180648C93938D848D981306C0028862
:10025000F389E02D80818F7D80830895EF92FF9256
:100260000F931F93CF93DF93EC0181E0888F9B8DD9
:100270008C8D981305C0E889F989808185FD24C09B
:10028000F62E0B8D10E00F5F1F4F0F731127E02E1E
:100290008C8DE8120CC00FB607FCFACFE889F989FB
:1002A000808185FFF5CFCE010E940D01F1CF8B8DAE
:1002B000FE01E80FF11DE35AFF4FF0820B8FEA8930
:1002C000FB898081806207C0EE89FF896083E889AD
:1002D000F98980818064808381E090E0DF91CF9113
:1002E0001F910F91FF90EF900895CF93DF93EC0152
:1002F000888D8823C9F0EA89FB89808185FD05C046
:10030000A889B9898C9186FD0FC00FB607FCF5CF7F
:10031000808185FFF2CFA889B9898C9185FFEDCFC7
:10032000CE010E940D01E7CFDF91CF91089580E0CB
:1003300090E0892B29F00E94030181110C940000A8
:100340000895833081F028F4813099F08230A1F053
:1003500008958730A9F08830B9F08430D1F48091C5
:1003600080008F7D03C0809180008F778093800014
:10037000089584B58F7702C084B58F7D84BD0895BC
:100380008091B0008F7703C08091B0008F7D809303
:10039000B0000895CF93DF93282F30E0F901E255A4
:1003A000FF4F8491F901E656FF4FD491F901EA57C6
:1003B000FF4FC491CC2391F081110E94A101EC2F39
:1003C000F0E0EE0FFF1FE458FF4FA591B491EC91C0
:1003D000ED2381E090E021F480E002C080E090E035
:1003E000DF91CF9108951F93CF93DF93282F30E0B3
:1003F000F901E255FF4F8491F901E656FF4FD49180
:10040000F901EA57FF4FC491CC23C9F0162F81118F
:100410000E94A101EC2FF0E0EE0FFF1FEE58FF4FFE
:10042000A591B4918FB7F894111105C09C91ED2F4F
:10043000E095E92302C0EC91ED2BEC938FBFDF91A7
:10044000CF911F910895CF93DF9390E0FC01E65682
:10045000FF4F2491FC01EA57FF4F8491882361F1FB
:1004600090E0880F991FFC01E859FF4FC591D49186
:10047000FC01EE58FF4FA591B491611109C09FB7DF
:10048000F8948881209582238883EC912E230BC0D9
:10049000623061F49FB7F8943881822F809583236E
:1004A0008883EC912E2B2C939FBF06C08FB7F894B6
:1004B000E8812E2B28838FBFDF91CF9108951F9362
:1004C000CF93DF93182FEB0161E00E942302209766
:1004D00011F460E004C0CF3FD10539F461E0812F11
:1004E000DF91CF911F910C94F301E12FF0E0E255E1
:1004F000FF4FE491E330F9F048F4E130B9F0E23035
:10050000A1F584B5806284BDC8BD34C0E730E9F090
:10051000E83019F1E43049F58091800080628093E1
:100520008000D0938B00C0938A0024C084B580687B
:1005300084BDC7BD1FC0809180008068809380000B
:10054000D0938900C093880015C08091B000806866
:100550008093B000C093B3000DC08091B000806262
:100560008093B000C093B40005C0C038D1050CF032
:10057000B5CFAFCFDF91CF911F9108958E3008F0A6
:100580008E508770806480937C0080917A008064B4
:1005900080937A0080917A0086FDFCCF809178006C
:1005A0002091790090E0922B08953FB7F8948091C4
:1005B0003F0190914001A0914101B091420126B5C7
:1005C000A89B05C02F3F19F00196A11DB11D3FBF8B
:1005D000BA2FA92F982F8827820F911DA11DB11D19
:1005E000BC01CD0142E0660F771F881F991F4A9515
:1005F000D1F708958F929F92AF92BF92CF92DF92E0
:10060000EF92FF926B017C010E94D5024B015C01CD
:10061000C114D104E104F104F1F00E94D502DC011F
:10062000CB0188199909AA09BB09883E9340A10505
:10063000B10570F321E0C21AD108E108F10888EE93
:10064000880E83E0981EA11CB11CC114D104E104E2
:10065000F10419F7DDCFFF90EF90DF90CF90BF90BE
:10066000AF909F908F900895CF92DF92FF920F935B
:100670001F93CF93DF93EC012FB7F89480913B0148
:1006800090913C01A0913D01B0913E012FBF488562
:1006900059856A857B8584179507A607B70720F4D7
:1006A000188619861A861B862C8521110FC048854D
:1006B00059856A857B85841B950BA60BB70B803DFE
:1006C0009740A105B10510F481E07CC01C862FB7CE
:1006D000F89480913B0190913C01A0913D01B09133
:1006E0003E012FBF88879987AA87BB871C821B8200
:1006F0001A821982188261E08E810E94F3016AEFEA
:1007000070E080E090E00E94FA0261E08E810E9439
:10071000230260E08E810E94F30164E170E080E0DA
:1007200090E00E94FA02F89461E08E810E94F30149
:100730008BE990E00197F1F760E08E810E9423023F
:1007400010E0F12C81E000E0C82ED12C8E810E94B7
:10075000CA018C159D0519F40F5F0F3FB9F78E8103
:100760000E94CA010F3FB9F0143090F010FD10C084
:100770009F2D969596959695FE01E90FF11D908116
:10078000990F90832F81201710F491609083F39438
:100790001F5F1535C1F6789487E28F1590F42C8190
:1007A00030E04881898190E0840F911D4A81840F57
:1007B000911D4B81840F911D99272817390709F442
:1007C00083CF80E0DF91CF911F910F91FF90DF9059
:1007D000CF900895CF92DF92EF92FF921F93CF9325
:1007E000DF93EC010E943403882309F446C01A8188
:1007F000612F6F7770E080E090E00E94550A20E062
:1008000030E040E853E40E940A0B6B017C018B81CD
:10081000682F70E080E090E00E94550A9B01AC01D7
:10082000C701B6010E94410920E030E040E251E4F6
:100830000E94B20917FD05C0698B7A8B8B8B9C8B4C
:1008400007C0DC01CB01B058898B9A8BAB8BBC8B7A
:1008500026E636E646EE5FE369897A898B899C89CC
:100860000E940A0B20E030E040E052E40E9441097F
:100870006D8B7E8B8F8B988F0CC080E090E0A0EC0E
:10088000BFE7898B9A8BAB8BBC8B8D8B9E8BAF8B91
:10089000B88FDF91CF911F91FF90EF90DF90CF90B5
:1008A0000895CF92DF92EF92FF92CF93DF93EC0106
:1008B0000E943403882331F1688170E080E090E089
:1008C0000E94530A20E030E040E853E40E940A0B03
:1008D0006B017C018981682F70E080E090E00E94CC
:1008E000550A9B01AC01C701B6010E94410920E0F5
:1008F00030E040E251E40E94B2096D877E878F8725
:10090000988B08C080E090E0A0ECBFE78D879E87C1
:10091000AF87B88BDF91CF91FF90EF90DF90CF90B2
:100920000895009769F0FC0101900020E9F73197E4
:10093000AF01481B590BBC0182E591E00C94970074
:1009400080E090E008958F929F92AF92BF920F93B4
:100950001F93CF93DF93CDB7DEB7A1970FB6F8946F
:10096000DEBF0FBECDBF19A2423008F44AE08E01AF
:100970000F5D1F4F842E912CA12CB12CA501940149
:100980000E947C0BE62FB901CA0101501109EA301F
:1009900014F4E05D01C0E95CD801EC93232B242B17
:1009A000252B61F7C8010E949104A1960FB6F89417
:1009B000DEBF0FBECDBFDF91CF911F910F91BF90D2
:1009C000AF909F908F900895CF93DF9382E191E055
:1009D0000E949104EC018BE291E00E9491048C0F43
:1009E0009D1FDF91CF9108958F929F92AF92BF92FA
:1009F000CF92DF92EF92FF92CF93DF936B017C0156
:100A00009B01AC010E94770B882319F08EE291E0E4
:100A100027C046015701E894B7F82FEF3FEF4FE7A3
:100A20005FE7C501B4010E94770B81110DC02FEF64
:100A30003FEF4FE75FE7C501B4010E94AD0918160B
:100A40001CF482E391E00CC02FEF3FEF4FE75FE42F
:100A5000C701B6010E94050B181674F486E391E0F5
:100A6000DF91CF91FF90EF90DF90CF90BF90AF904C
:100A70009F908F900C9491042FEF3FEF4FE75FEC26
:100A8000C701B6010E94AD0987FDE8CF20E030E044
:100A9000A901C701B6010E94AD0987FF09C08DE217
:100AA0000E948C00EC01F7FAF094F7F8F09402C081
:100AB000C0E0D0E02AE037ED43EA5BE3C701B601CE
:100AC0000E9441094B015C010E94240A6B017C01D8
:100AD0000E94530A9B01AC01C501B4010E94400968
:100AE0004B015C014AE0C701B6010E94A304C80F94
:100AF000D91F8EE20E948C00C80FD91F20E030E081
:100B000040E251E4C501B4010E940A0B4B015C01B3
:100B10000E94240A6B01E12CF12C4AE0C701B601C6
:100B20000E94A304C80FD91FC701B6010E94530A2F
:100B30009B01AC01C501B4010E94400920E030E0F6
:100B400040E251E40E940A0B0E94240A80E090E0F7
:100B50004AE00E94A3048C0F9D1FDF91CF91FF906C
:100B6000EF90DF90CF90BF90AF909F908F900895BF
:100B7000CF92DF92EF92FF92CF93DF936C01990FA8
:100B8000EE08FF08F7FE17C08DE20E948C00EC0112
:100B900066277727CB016C197D098E099F094AE0EA
:100BA0000E94A3048C0F9D1FDF91CF91FF90EF90C7
:100BB000DF90CF9008954AE0C701B601DF91CF9151
:100BC000FF90EF90DF90CF900C94A3040E94A40BB1
:100BD0001F920F920FB60F9211242F933F934F93B2
:100BE0005F936F937F938F939F93AF93BF93EF9395
:100BF000FF9382E591E00E940D01FF91EF91BF917B
:100C0000AF919F918F917F916F915F914F913F91A4
:100C10002F910F900FBE0F901F9018951F920F925B
:100C20000FB60F9211242F938F939F93EF93FF93FF
:100C3000E0916201F09163018081E0916801F0919F
:100C4000690182FD12C0908180916B018F5F8F736B
:100C500020916C01821751F0E0916B01F0E0EE5AA7
:100C6000FE4F958F80936B0101C08081FF91EF91C2
:100C70009F918F912F910F900FBE0F901F901895FD
:100C80001F920F920FB60F9211242F933F938F93C1
:100C90009F93AF93BF9380913B0190913C01A091B2
:100CA0003D01B0913E0130913A0123E0230F2D37F1
:100CB00020F40196A11DB11D05C026E8230F029660
:100CC000A11DB11D20933A0180933B0190933C01FB
:100CD000A0933D01B0933E0180913F01909140016E
:100CE000A0914101B09142010196A11DB11D8093D7
:100CF0003F0190934001A0934101B0934201BF9105
:100D0000AF919F918F913F912F910F900FBE0F90B8
:100D10001F901895E2E5F1E01382128288EE93E0CD
:100D2000A0E0B0E084839583A683B78384E091E05C
:100D30009183808385EC90E09587848784EC90E0B4
:100D40009787868780EC90E0918B808B81EC90E098
:100D5000938B828B82EC90E0958B848B86EC90E079
:100D6000978B868B118E128E138E148EE8E0F2E034
:100D700082E0868396E0978381E08487EFEEF1E05E
:100D800024E02683978384870895789484B58260CD
:100D900084BD84B5816084BD85B5826085BD85B51F
:100DA000816085BD80916E00816080936E0010929D
:100DB0008100809181008260809381008091810018
:100DC00081608093810080918000816080938000A9
:100DD0008091B10084608093B1008091B000816007
:100DE0008093B00080917A00846080937A00809133
:100DF0007A00826080937A0080917A00816080938B
:100E00007A0080917A00806880937A001092C10005
:100E1000E0916201F091630182E08083E0915E01E4
:100E2000F0915F011082E0916001F09161018FEC1F
:100E3000808310926A01E0916601F091670186E07B
:100E40008083E0916401F0916501808180618083FD
:100E5000E0916401F0916501808188608083E09178
:100E60006401F0916501808180688083E091640174
:100E7000F091650180818F7D808360E080910E021A
:100E80000E94230261E080910E020E94F301109201
:100E9000100210921102109212021092130260E0DE
:100EA0008091F5010E94230261E08091F5010E948A
:100EB000F3011092F7011092F8011092F9011092CB
:100EC000FA0182E591E00E94F700892B09F4D5C16F
:100ED00082E591E00E94D50080935101863509F4A6
:100EE00057C04CF4833509F494C0843589F18134BA
:100EF00009F0C3C1DBC08437D9F1863709F469C072
:100F0000833709F0BAC161E083E00E94230260E008
:100F100070E083E00E945F0260E08FE00E942302A5
:100F20008FE00E94BE0290934E0180934D0183E7B3
:100F30000E948C0080914D0190914E010E94B80555
:100F40008AE00E948C00C0914D01D0914E0185C075
:100F500088E092E00E94EA0384E50E948C006091A0
:100F6000190270911A0280911B0290911C024EC0CE
:100F70008FEE91E00E94EA0384E70E948C0060916A
:100F800000027091010280910202909103023EC022
:100F900088E092E00E94510460911502709116025F
:100FA00080911702909118029B01AC010E94770B6F
:100FB000882319F00E94E40460C186E50E948C0039
:100FC000609115027091160280911702909118029B
:100FD0001DC08FEE91E00E9451046091FC01709160
:100FE000FD018091FE019091FF019B01AC010E94E7
:100FF000770B8111DFCF86E70E948C006091FC01A6
:101000007091FD018091FE019091FF010E94F40416
:1010100031C161E083E00E94230260E070E083E080
:101020000E945F0260E08EE00E9423028EE00E9438
:10103000BE029093500180934F0183E50E948C0083
:1010400080914F01909150010E94B8058AE00E9462
:101050008C00C0914F01D0915001CA30D10528F4C5
:101060006FEF70E083E00E945F02CE010A978A353D
:10107000910528F460E870E083E00E945F02CE01F1
:10108000845691098436910528F460E470E083E089
:101090000E945F02C85CD109C733D34008F0EDC09D
:1010A00060E070E083E00E945F02E7C088E092E0C9
:1010B0000E94EA038091190290911A02A0911B02EA
:1010C000B0911C028093490190934A01A0934B0177
:1010D000B0934C018FEE91E00E94EA0380910002F0
:1010E00090910102A0910202B09103028093450108
:1010F00090934601A0934701B093480188E092E0A5
:101100000E9451046091150270911602809117029D
:10111000909118029B01AC010E94770B81114ACF7C
:101120008FEE91E00E9451046091150270911602B9
:1011300080911702909118029B01AC010E94770BDD
:10114000811138CF60E08EE00E9423028EE00E9481
:10115000BE02EC019093500180934F0160E08FE05C
:101160000E9423028FE00E94BE028C0190934E01E8
:1011700080934D0161E083E00E94230260E070E013
:1011800083E00E945F02C00FD11FD7FD2196D59545
:10119000C795D0934401C0934301CA30D10528F4C8
:1011A0006FEF70E083E00E945F02CE010A978A35FC
:1011B000910528F460E870E083E00E945F02CE01B0
:1011C000845691098436910528F460E470E083E048
:1011D0000E945F02C85CD109C733D34028F460E0A5
:1011E00070E083E00E945F0281E40E948C006091C5
:1011F000490170914A0180914B0190914C010E94EC
:10120000F4048CE20E948C006091450170914601CB
:1012100080914701909148010E94F4048CE20E9461
:101220008C006091150270911602809117029091C6
:1012300018020E94F4048CE20E948C006091FC0170
:101240007091FD018091FE019091FF010E94F404D4
:101250008CE20E948C0080914F01909150010E947D
:10126000B8058CE20E948C0080914D0190914E0156
:101270000E94B8058AE00E948C000E94970121CE4E
:101280005058BB27AA270E9458090C94CB0A0E94E9
:10129000BD0A38F00E94C40A20F039F49F3F19F4C7
:1012A00026F40C94BA0A0EF4E095E7FB0C94B40A09
:1012B000E92F0E94DC0A58F3BA1762077307840704
:1012C000950720F079F4A6F50C94FE0A0EF4E0954B
:1012D0000B2EBA2FA02D0B01B90190010C01CA01F0
:1012E000A0011124FF27591B99F0593F50F4503E9B
:1012F00068F11A16F040A22F232F342F4427585F8D
:10130000F3CF469537952795A795F0405395C9F7A4
:101310007EF41F16BA0B620B730B840BBAF091505C
:10132000A1F0FF0FBB1F661F771F881FC2F70EC0FB
:10133000BA0F621F731F841F48F4879577956795CE
:10134000B795F7959E3F08F0B0CF9395880F08F0BA
:101350009927EE0F9795879508950E94900A08F4B3
:1013600081E008950E94C6090C94CB0A0E94C40A29
:1013700058F00E94BD0A40F029F45F3F29F00C9418
:10138000B40A51110C94FF0A0C94BA0A0E94DC0AA8
:1013900068F39923B1F3552391F3951B550BBB27A4
:1013A000AA2762177307840738F09F5F5F4F220FE9
:1013B000331F441FAA1FA9F335D00E2E3AF0E0E8E0
:1013C00032D091505040E695001CCAF72BD0FE2F2A
:1013D00029D0660F771F881FBB1F261737074807BE
:1013E000AB07B0E809F0BB0B802DBF01FF27935876
:1013F0005F4F3AF09E3F510578F00C94B40A0C947C
:10140000FF0A5F3FE4F3983ED4F38695779567959E
:10141000B795F7959F5FC9F7880F911D96958795AA
:1014200097F90895E1E0660F771F881FBB1F6217C9
:1014300073078407BA0720F0621B730B840BBA0B87
:10144000EE1F88F7E09508950E94E40A88F09F5700
:1014500098F0B92F9927B751B0F0E1F0660F771FD8
:10146000881F991F1AF0BA95C9F714C0B13091F0CE
:101470000E94FE0AB1E008950C94FE0A672F782FAF
:101480008827B85F39F0B93FCCF386957795679593
:10149000B395D9F73EF490958095709561957F4FFF
:1014A0008F4F9F4F0895E89409C097FB3EF49095A5
:1014B0008095709561957F4F8F4F9F4F9923A9F02D
:1014C000F92F96E9BB279395F695879577956795BC
:1014D000B795F111F8CFFAF4BB0F11F460FF1BC000
:1014E0006F5F7F4F8F4F9F4F16C0882311F096E993
:1014F00011C0772321F09EE8872F762F05C0662341
:1015000071F096E8862F70E060E02AF09A95660FF9
:10151000771F881FDAF7880F9695879597F90895B2
:10152000990F0008550FAA0BE0E8FEEF16161706F4
:10153000E807F907C0F012161306E407F50798F05C
:10154000621B730B840B950B39F40A2661F0232B75
:10155000242B252B21F408950A2609F4A140A695F1
:101560008FEF811D811D089597F99F6780E870E0D6
:1015700060E008959FEF80EC089500240A94161609
:10158000170618060906089500240A941216130671
:10159000140605060895092E0394000C11F48823FF
:1015A00052F0BB0F40F4BF2B11F460FF04C06F5F1B
:1015B0007F4F8F4F9F4F089557FD9058440F551FF1
:1015C00059F05F3F71F04795880F97FB991F61F0C5
:1015D0009F3F79F087950895121613061406551F3C
:1015E000F2CF4695F1DF08C0161617061806991FA8
:1015F000F1CF86957105610508940895E894BB279D
:1016000066277727CB0197F908950E94900A08F47E
:101610008FEF08950E941D0B0C94CB0A0E94BD0A07
:1016200038F00E94C40A20F0952311F00C94B40AFB
:101630000C94BA0A11240C94FF0A0E94DC0A70F37D
:10164000959FC1F3950F50E0551F629FF001729F67
:10165000BB27F00DB11D639FAA27F00DB11DAA1F76
:10166000649F6627B00DA11D661F829F2227B00DC3
:10167000A11D621F739FB00DA11D621F839FA00D4E
:10168000611D221F749F3327A00D611D231F849F9E
:10169000600D211D822F762F6A2F11249F575040F5
:1016A0009AF0F1F088234AF0EE0FFF1FBB1F661F70
:1016B000771F881F91505040A9F79E3F510580F039
:1016C0000C94B40A0C94FF0A5F3FE4F3983ED4F301
:1016D000869577956795B795F795E7959F5FC1F7DD
:1016E000FE2B880F911D9695879597F908950E9476
:1016F000900A880B990B0895A1E21A2EAA1BBB1B16
:10170000FD010DC0AA1FBB1FEE1FFF1FA217B307CD
:10171000E407F50720F0A21BB30BE40BF50B661FE3
:10172000771F881F991F1A9469F7609570958095A7
:1017300090959B01AC01BD01CF010895EE0FFF1FF5
:101740000590F491E02D099481E090E0F8940C94D8
:06175000A90BF894FFCF85
:10175600000000002E019700C6007501F700D500B5
:10176600E9004448542073656E736F722072656198
:1017760064206661696C75726521000D0A006E61F0
:0A1786006E00696E66006F76660063
:00000001FF
